{
  "contractName": "MinterBurner",
  "abi": [
    {
      "inputs": [
        {
          "internalType": "contract IMintableBurnable",
          "name": "token_",
          "type": "address"
        }
      ],
      "stateMutability": "nonpayable",
      "type": "constructor"
    },
    {
      "anonymous": false,
      "inputs": [
        {
          "indexed": true,
          "internalType": "bytes32",
          "name": "role",
          "type": "bytes32"
        },
        {
          "indexed": true,
          "internalType": "bytes32",
          "name": "previousAdminRole",
          "type": "bytes32"
        },
        {
          "indexed": true,
          "internalType": "bytes32",
          "name": "newAdminRole",
          "type": "bytes32"
        }
      ],
      "name": "RoleAdminChanged",
      "type": "event"
    },
    {
      "anonymous": false,
      "inputs": [
        {
          "indexed": true,
          "internalType": "bytes32",
          "name": "role",
          "type": "bytes32"
        },
        {
          "indexed": true,
          "internalType": "address",
          "name": "account",
          "type": "address"
        },
        {
          "indexed": true,
          "internalType": "address",
          "name": "sender",
          "type": "address"
        }
      ],
      "name": "RoleGranted",
      "type": "event"
    },
    {
      "anonymous": false,
      "inputs": [
        {
          "indexed": true,
          "internalType": "bytes32",
          "name": "role",
          "type": "bytes32"
        },
        {
          "indexed": true,
          "internalType": "address",
          "name": "account",
          "type": "address"
        },
        {
          "indexed": true,
          "internalType": "address",
          "name": "sender",
          "type": "address"
        }
      ],
      "name": "RoleRevoked",
      "type": "event"
    },
    {
      "inputs": [],
      "name": "DEFAULT_ADMIN_ROLE",
      "outputs": [
        {
          "internalType": "bytes32",
          "name": "",
          "type": "bytes32"
        }
      ],
      "stateMutability": "view",
      "type": "function"
    },
    {
      "inputs": [],
      "name": "MINTER_ROLE",
      "outputs": [
        {
          "internalType": "bytes32",
          "name": "",
          "type": "bytes32"
        }
      ],
      "stateMutability": "view",
      "type": "function"
    },
    {
      "inputs": [
        {
          "internalType": "bytes32",
          "name": "role",
          "type": "bytes32"
        }
      ],
      "name": "getRoleAdmin",
      "outputs": [
        {
          "internalType": "bytes32",
          "name": "",
          "type": "bytes32"
        }
      ],
      "stateMutability": "view",
      "type": "function"
    },
    {
      "inputs": [
        {
          "internalType": "bytes32",
          "name": "role",
          "type": "bytes32"
        },
        {
          "internalType": "address",
          "name": "account",
          "type": "address"
        }
      ],
      "name": "grantRole",
      "outputs": [],
      "stateMutability": "nonpayable",
      "type": "function"
    },
    {
      "inputs": [
        {
          "internalType": "bytes32",
          "name": "role",
          "type": "bytes32"
        },
        {
          "internalType": "address",
          "name": "account",
          "type": "address"
        }
      ],
      "name": "hasRole",
      "outputs": [
        {
          "internalType": "bool",
          "name": "",
          "type": "bool"
        }
      ],
      "stateMutability": "view",
      "type": "function"
    },
    {
      "inputs": [
        {
          "internalType": "bytes32",
          "name": "role",
          "type": "bytes32"
        },
        {
          "internalType": "address",
          "name": "account",
          "type": "address"
        }
      ],
      "name": "renounceRole",
      "outputs": [],
      "stateMutability": "nonpayable",
      "type": "function"
    },
    {
      "inputs": [
        {
          "internalType": "bytes32",
          "name": "role",
          "type": "bytes32"
        },
        {
          "internalType": "address",
          "name": "account",
          "type": "address"
        }
      ],
      "name": "revokeRole",
      "outputs": [],
      "stateMutability": "nonpayable",
      "type": "function"
    },
    {
      "inputs": [
        {
          "internalType": "bytes4",
          "name": "interfaceId",
          "type": "bytes4"
        }
      ],
      "name": "supportsInterface",
      "outputs": [
        {
          "internalType": "bool",
          "name": "",
          "type": "bool"
        }
      ],
      "stateMutability": "view",
      "type": "function"
    },
    {
      "inputs": [],
      "name": "token",
      "outputs": [
        {
          "internalType": "contract IMintableBurnable",
          "name": "",
          "type": "address"
        }
      ],
      "stateMutability": "view",
      "type": "function"
    },
    {
      "inputs": [
        {
          "internalType": "address",
          "name": "from",
          "type": "address"
        },
        {
          "internalType": "uint256",
          "name": "amount",
          "type": "uint256"
        }
      ],
      "name": "burn",
      "outputs": [
        {
          "internalType": "bool",
          "name": "",
          "type": "bool"
        }
      ],
      "stateMutability": "nonpayable",
      "type": "function"
    },
    {
      "inputs": [
        {
          "internalType": "address",
          "name": "to",
          "type": "address"
        },
        {
          "internalType": "uint256",
          "name": "amount",
          "type": "uint256"
        }
      ],
      "name": "mint",
      "outputs": [
        {
          "internalType": "bool",
          "name": "",
          "type": "bool"
        }
      ],
      "stateMutability": "nonpayable",
      "type": "function"
    }
  ],
  "bytecode": "0x60a060405234801561001057600080fd5b50604051610b09380380610b0983398101604081905261002f916100ec565b6001600160a01b03811660805261004760003361004d565b5061011c565b6000828152602081815260408083206001600160a01b038516845290915290205460ff166100e8576000828152602081815260408083206001600160a01b03851684529091529020805460ff191660011790556100a73390565b6001600160a01b0316816001600160a01b0316837f2f8788117e7eff1d82e926ec794901d17c78024a50270940304540a733656f0d60405160405180910390a45b5050565b6000602082840312156100fe57600080fd5b81516001600160a01b038116811461011557600080fd5b9392505050565b6080516109c4610145600039600081816101af0152818161031f015261041001526109c46000f3fe608060405234801561001057600080fd5b50600436106100a95760003560e01c806391d148541161007157806391d14854146101425780639dc29fac14610155578063a217fddf14610168578063d539139314610170578063d547741f14610197578063fc0c546a146101aa57600080fd5b806301ffc9a7146100ae578063248a9ca3146100d65780632f2ff15d1461010757806336568abe1461011c57806340c10f191461012f575b600080fd5b6100c16100bc366004610768565b6101e9565b60405190151581526020015b60405180910390f35b6100f96100e4366004610792565b60009081526020819052604090206001015490565b6040519081526020016100cd565b61011a6101153660046107c7565b610220565b005b61011a61012a3660046107c7565b61024a565b6100c161013d3660046107f3565b6102cd565b6100c16101503660046107c7565b610395565b6100c16101633660046107f3565b6103be565b6100f9600081565b6100f97f9f2df0fed2c77648de5860a4cc508cd0818c85b8b8a1ab4ceeef8d981c8956a681565b61011a6101a53660046107c7565b61043f565b6101d17f000000000000000000000000000000000000000000000000000000000000000081565b6040516001600160a01b0390911681526020016100cd565b60006001600160e01b03198216637965db0b60e01b148061021a57506301ffc9a760e01b6001600160e01b03198316145b92915050565b60008281526020819052604090206001015461023b81610464565b6102458383610471565b505050565b6001600160a01b03811633146102bf5760405162461bcd60e51b815260206004820152602f60248201527f416363657373436f6e74726f6c3a2063616e206f6e6c792072656e6f756e636560448201526e103937b632b9903337b91039b2b63360891b60648201526084015b60405180910390fd5b6102c982826104f5565b5050565b60007f9f2df0fed2c77648de5860a4cc508cd0818c85b8b8a1ab4ceeef8d981c8956a66102f981610464565b6040516340c10f1960e01b81526001600160a01b038581166004830152602482018590527f000000000000000000000000000000000000000000000000000000000000000016906340c10f19906044015b6020604051808303816000875af1158015610369573d6000803e3d6000fd5b505050506040513d601f19601f8201168201806040525081019061038d919061081d565b949350505050565b6000918252602082815260408084206001600160a01b0393909316845291905290205460ff1690565b60007f9f2df0fed2c77648de5860a4cc508cd0818c85b8b8a1ab4ceeef8d981c8956a66103ea81610464565b604051632770a7eb60e21b81526001600160a01b038581166004830152602482018590527f00000000000000000000000000000000000000000000000000000000000000001690639dc29fac9060440161034a565b60008281526020819052604090206001015461045a81610464565b61024583836104f5565b61046e813361055a565b50565b61047b8282610395565b6102c9576000828152602081815260408083206001600160a01b03851684529091529020805460ff191660011790556104b13390565b6001600160a01b0316816001600160a01b0316837f2f8788117e7eff1d82e926ec794901d17c78024a50270940304540a733656f0d60405160405180910390a45050565b6104ff8282610395565b156102c9576000828152602081815260408083206001600160a01b0385168085529252808320805460ff1916905551339285917ff6391f5c32d9c69d2a47ea670b442974b53935d1edc7fd64eb21e047a839171b9190a45050565b6105648282610395565b6102c957610571816105b3565b61057c8360206105c5565b60405160200161058d929190610863565b60408051601f198184030181529082905262461bcd60e51b82526102b6916004016108d8565b606061021a6001600160a01b03831660145b606060006105d4836002610921565b6105df906002610938565b67ffffffffffffffff8111156105f7576105f761094b565b6040519080825280601f01601f191660200182016040528015610621576020820181803683370190505b509050600360fc1b8160008151811061063c5761063c610961565b60200101906001600160f81b031916908160001a905350600f60fb1b8160018151811061066b5761066b610961565b60200101906001600160f81b031916908160001a905350600061068f846002610921565b61069a906001610938565b90505b6001811115610712576f181899199a1a9b1b9c1cb0b131b232b360811b85600f16601081106106ce576106ce610961565b1a60f81b8282815181106106e4576106e4610961565b60200101906001600160f81b031916908160001a90535060049490941c9361070b81610977565b905061069d565b5083156107615760405162461bcd60e51b815260206004820181905260248201527f537472696e67733a20686578206c656e67746820696e73756666696369656e7460448201526064016102b6565b9392505050565b60006020828403121561077a57600080fd5b81356001600160e01b03198116811461076157600080fd5b6000602082840312156107a457600080fd5b5035919050565b80356001600160a01b03811681146107c257600080fd5b919050565b600080604083850312156107da57600080fd5b823591506107ea602084016107ab565b90509250929050565b6000806040838503121561080657600080fd5b61080f836107ab565b946020939093013593505050565b60006020828403121561082f57600080fd5b8151801515811461076157600080fd5b60005b8381101561085a578181015183820152602001610842565b50506000910152565b7f416363657373436f6e74726f6c3a206163636f756e742000000000000000000081526000835161089b81601785016020880161083f565b7001034b99036b4b9b9b4b733903937b6329607d1b60179184019182015283516108cc81602884016020880161083f565b01602801949350505050565b60208152600082518060208401526108f781604085016020870161083f565b601f01601f19169190910160400192915050565b634e487b7160e01b600052601160045260246000fd5b808202811582820484141761021a5761021a61090b565b8082018082111561021a5761021a61090b565b634e487b7160e01b600052604160045260246000fd5b634e487b7160e01b600052603260045260246000fd5b6000816109865761098661090b565b50600019019056fea264697066735822122073dba6b13026c95f9dcbf3ecddcfe6235b8ec92082de608d269221e117f7c63664736f6c63430008130033",
  "immutableReferences": {
    "3489": [
      {
        "length": 32,
        "start": 431
      },
      {
        "length": 32,
        "start": 799
      },
      {
        "length": 32,
        "start": 1040
      }
    ]
  },
  "source": "// SPDX-License-Identifier: MIT\npragma solidity 0.8.19;\n\nimport \"@openzeppelin/contracts/access/AccessControl.sol\";\nimport \"./interfaces/IMintableBurnable.sol\";\n\n/// @title ElevatedMinterBurner\n/// @notice ElevatedMinterBurner is a periphery contract for minting and burning tokens and executing arbitrary calls.\ncontract MinterBurner is IMintableBurnable,AccessControl {\n    IMintableBurnable public immutable token;\n\n    bytes32 public constant MINTER_ROLE = keccak256(\"MINTER_ROLE\");\n\n    constructor(IMintableBurnable token_) {\n        token = token_;\n        _grantRole(DEFAULT_ADMIN_ROLE, msg.sender);\n    }\n\n    function burn(address from, uint256 amount) external override onlyRole (MINTER_ROLE) returns (bool) {\n        return token.burn(from, amount);\n    }\n\n    function mint(address to, uint256 amount) external override onlyRole (MINTER_ROLE) returns (bool) {\n        return token.mint(to, amount);\n    }\n\n}",
  "sourcePath": "/Users/mrrobot1/Documents/GitHub/singularitydao/launchapd_contracts.git/sophiaverse-token-contracts-oft/contracts/oft/MinterBurner.sol",
  "compiler": {
    "name": "solc",
    "version": "0.8.19+commit.7dd6d404.Emscripten.clang"
  },
  "schemaVersion": "3.4.2",
  "updatedAt": "2023-09-22T06:31:42.912Z",
  "devdoc": {
    "events": {
      "RoleAdminChanged(bytes32,bytes32,bytes32)": {
        "details": "Emitted when `newAdminRole` is set as ``role``'s admin role, replacing `previousAdminRole` `DEFAULT_ADMIN_ROLE` is the starting admin for all roles, despite {RoleAdminChanged} not being emitted signaling this. _Available since v3.1._"
      },
      "RoleGranted(bytes32,address,address)": {
        "details": "Emitted when `account` is granted `role`. `sender` is the account that originated the contract call, an admin role bearer except when using {AccessControl-_setupRole}."
      },
      "RoleRevoked(bytes32,address,address)": {
        "details": "Emitted when `account` is revoked `role`. `sender` is the account that originated the contract call:   - if using `revokeRole`, it is the admin role bearer   - if using `renounceRole`, it is the role bearer (i.e. `account`)"
      }
    },
    "kind": "dev",
    "methods": {
      "getRoleAdmin(bytes32)": {
        "details": "Returns the admin role that controls `role`. See {grantRole} and {revokeRole}. To change a role's admin, use {_setRoleAdmin}."
      },
      "grantRole(bytes32,address)": {
        "details": "Grants `role` to `account`. If `account` had not been already granted `role`, emits a {RoleGranted} event. Requirements: - the caller must have ``role``'s admin role. May emit a {RoleGranted} event."
      },
      "hasRole(bytes32,address)": {
        "details": "Returns `true` if `account` has been granted `role`."
      },
      "renounceRole(bytes32,address)": {
        "details": "Revokes `role` from the calling account. Roles are often managed via {grantRole} and {revokeRole}: this function's purpose is to provide a mechanism for accounts to lose their privileges if they are compromised (such as when a trusted device is misplaced). If the calling account had been revoked `role`, emits a {RoleRevoked} event. Requirements: - the caller must be `account`. May emit a {RoleRevoked} event."
      },
      "revokeRole(bytes32,address)": {
        "details": "Revokes `role` from `account`. If `account` had been granted `role`, emits a {RoleRevoked} event. Requirements: - the caller must have ``role``'s admin role. May emit a {RoleRevoked} event."
      },
      "supportsInterface(bytes4)": {
        "details": "See {IERC165-supportsInterface}."
      }
    },
    "title": "ElevatedMinterBurner",
    "version": 1
  },
  "userdoc": {
    "kind": "user",
    "methods": {},
    "notice": "ElevatedMinterBurner is a periphery contract for minting and burning tokens and executing arbitrary calls.",
    "version": 1
  }
}