{
  "_format": "hh-sol-artifact-1",
  "contractName": "SophPointsMinter",
  "sourceName": "contracts/oft/SophPointsMinter.sol",
  "abi": [
    {
      "anonymous": false,
      "inputs": [
        {
          "indexed": true,
          "internalType": "address",
          "name": "previousOwner",
          "type": "address"
        },
        {
          "indexed": true,
          "internalType": "address",
          "name": "newOwner",
          "type": "address"
        }
      ],
      "name": "OwnershipTransferred",
      "type": "event"
    },
    {
      "inputs": [
        {
          "internalType": "uint256",
          "name": "",
          "type": "uint256"
        }
      ],
      "name": "_users",
      "outputs": [
        {
          "internalType": "address",
          "name": "",
          "type": "address"
        }
      ],
      "stateMutability": "view",
      "type": "function"
    },
    {
      "inputs": [
        {
          "internalType": "address",
          "name": "user",
          "type": "address"
        },
        {
          "internalType": "uint256",
          "name": "points",
          "type": "uint256"
        }
      ],
      "name": "addUser",
      "outputs": [],
      "stateMutability": "nonpayable",
      "type": "function"
    },
    {
      "inputs": [
        {
          "internalType": "address[]",
          "name": "users",
          "type": "address[]"
        },
        {
          "internalType": "uint256[]",
          "name": "points",
          "type": "uint256[]"
        }
      ],
      "name": "addUsers",
      "outputs": [],
      "stateMutability": "nonpayable",
      "type": "function"
    },
    {
      "inputs": [
        {
          "internalType": "address",
          "name": "",
          "type": "address"
        }
      ],
      "name": "balances",
      "outputs": [
        {
          "internalType": "address",
          "name": "user",
          "type": "address"
        },
        {
          "internalType": "uint256",
          "name": "amount",
          "type": "uint256"
        }
      ],
      "stateMutability": "view",
      "type": "function"
    },
    {
      "inputs": [
        {
          "internalType": "address",
          "name": "",
          "type": "address"
        }
      ],
      "name": "balancesLeaderboard",
      "outputs": [
        {
          "internalType": "address",
          "name": "user",
          "type": "address"
        },
        {
          "internalType": "uint256",
          "name": "amount",
          "type": "uint256"
        }
      ],
      "stateMutability": "view",
      "type": "function"
    },
    {
      "inputs": [
        {
          "internalType": "address",
          "name": "user",
          "type": "address"
        },
        {
          "internalType": "uint256",
          "name": "amount",
          "type": "uint256"
        }
      ],
      "name": "decreaseBalance",
      "outputs": [],
      "stateMutability": "nonpayable",
      "type": "function"
    },
    {
      "inputs": [
        {
          "internalType": "address",
          "name": "user",
          "type": "address"
        }
      ],
      "name": "getUserBalance",
      "outputs": [
        {
          "internalType": "uint256",
          "name": "",
          "type": "uint256"
        }
      ],
      "stateMutability": "view",
      "type": "function"
    },
    {
      "inputs": [
        {
          "internalType": "address",
          "name": "user",
          "type": "address"
        }
      ],
      "name": "getUserLeaderBoardBalance",
      "outputs": [
        {
          "internalType": "uint256",
          "name": "",
          "type": "uint256"
        }
      ],
      "stateMutability": "view",
      "type": "function"
    },
    {
      "inputs": [
        {
          "internalType": "address",
          "name": "user",
          "type": "address"
        },
        {
          "internalType": "uint256",
          "name": "amount",
          "type": "uint256"
        }
      ],
      "name": "increaseBalance",
      "outputs": [],
      "stateMutability": "nonpayable",
      "type": "function"
    },
    {
      "inputs": [],
      "name": "owner",
      "outputs": [
        {
          "internalType": "address",
          "name": "",
          "type": "address"
        }
      ],
      "stateMutability": "view",
      "type": "function"
    },
    {
      "inputs": [],
      "name": "renounceOwnership",
      "outputs": [],
      "stateMutability": "nonpayable",
      "type": "function"
    },
    {
      "inputs": [
        {
          "internalType": "address",
          "name": "newMintForge",
          "type": "address"
        }
      ],
      "name": "setWearableMinter",
      "outputs": [],
      "stateMutability": "nonpayable",
      "type": "function"
    },
    {
      "inputs": [
        {
          "internalType": "address",
          "name": "newOwner",
          "type": "address"
        }
      ],
      "name": "transferOwnership",
      "outputs": [],
      "stateMutability": "nonpayable",
      "type": "function"
    }
  ],
  "bytecode": "0x608060405234801561001057600080fd5b5061001a3361001f565b61006f565b600080546001600160a01b038381166001600160a01b0319831681178455604051919092169283917f8be0079c531659141344cd1fd0a4f28419497f9722a3daafe3b4186f6b6457e09190a35050565b610b458061007e6000396000f3fe608060405234801561001057600080fd5b50600436106100cf5760003560e01c8063715018a61161008c578063cc4a43c011610066578063cc4a43c01461022d578063d301719314610240578063f2fde38b14610253578063ff0569491461026657600080fd5b8063715018a6146101ed5780638da5cb5b146101f5578063be256bfb1461021a57600080fd5b806301cc3859146100d457806308a36181146100e957806327e235e3146101405780632b93e46a1461017357806347734892146101ad5780635b86f599146101da575b600080fd5b6100e76100e2366004610981565b610279565b005b61011c6100f7366004610981565b600260205260009081526040902080546001909101546001600160a01b039091169082565b604080516001600160a01b0390931683526020830191909152015b60405180910390f35b61011c61014e366004610981565b600160208190526000918252604090912080549101546001600160a01b039091169082565b61019f610181366004610981565b6001600160a01b031660009081526002602052604090206001015490565b604051908152602001610137565b61019f6101bb366004610981565b6001600160a01b03166000908152600160208190526040909120015490565b6100e76101e83660046109a3565b610313565b6100e76103c7565b6000546001600160a01b03165b6040516001600160a01b039091168152602001610137565b6100e7610228366004610a19565b6103db565b61020261023b366004610a85565b6106b6565b6100e761024e3660046109a3565b6106e0565b6100e7610261366004610981565b6107c7565b6100e76102743660046109a3565b610840565b6102816108bb565b6001600160a01b03811660009081526003602052604090205460ff16156102ef5760405162461bcd60e51b815260206004820152601860248201527f4552525f4d494e5445525f414c52454144595f4144444544000000000000000060448201526064015b60405180910390fd5b6001600160a01b03166000908152600360205260409020805460ff19166001179055565b3360009081526003602052604090205460ff166103635760405162461bcd60e51b815260206004820152600e60248201526d22a9292fa727aa2fa6a4a72a22a960911b60448201526064016102e6565b6001600160a01b0382166000908152600160208190526040822001805483929061038e908490610ab4565b90915550506001600160a01b038216600090815260026020526040812060010180548392906103be908490610ab4565b90915550505050565b6103cf6108bb565b6103d96000610915565b565b6103e36108bb565b60005b838110156106af57600060018187878581811061040557610405610acd565b905060200201602081019061041a9190610981565b6001600160a01b039081168252602082019290925260400160002054161461047a5760405162461bcd60e51b81526020600482015260136024820152727573657220616c72656164792065786973747360681b60448201526064016102e6565b84848281811061048c5761048c610acd565b90506020020160208101906104a19190610981565b600160008787858181106104b7576104b7610acd565b90506020020160208101906104cc9190610981565b6001600160a01b039081168252602082019290925260400160002080546001600160a01b0319169290911691909117905582828281811061050f5761050f610acd565b905060200201356001600087878581811061052c5761052c610acd565b90506020020160208101906105419190610981565b6001600160a01b0316815260208101919091526040016000206001015584848281811061057057610570610acd565b90506020020160208101906105859190610981565b6002600087878581811061059b5761059b610acd565b90506020020160208101906105b09190610981565b6001600160a01b039081168252602082019290925260400160002080546001600160a01b031916929091169190911790558282828181106105f3576105f3610acd565b905060200201356002600087878581811061061057610610610acd565b90506020020160208101906106259190610981565b6001600160a01b03168152602081019190915260400160002060010155600485858381811061065657610656610acd565b905060200201602081019061066b9190610981565b81546001810183556000928352602090922090910180546001600160a01b0319166001600160a01b03909216919091179055806106a781610ae3565b9150506103e6565b5050505050565b600481815481106106c657600080fd5b6000918252602090912001546001600160a01b0316905081565b6106e86108bb565b6001600160a01b0382811660009081526001602052604090205416156107465760405162461bcd60e51b81526020600482015260136024820152727573657220616c72656164792065786973747360681b60448201526064016102e6565b6001600160a01b03909116600081815260016020818152604080842080546001600160a01b0319908116871782559084018590556002909252832080548216851781558201949094556004805491820181559091527f8a35acfbc15ff81a39ae7d344fd709f28e8600b4aa8c65c6b64bfe7fe36bd19b018054909216179055565b6107cf6108bb565b6001600160a01b0381166108345760405162461bcd60e51b815260206004820152602660248201527f4f776e61626c653a206e6577206f776e657220697320746865207a65726f206160448201526564647265737360d01b60648201526084016102e6565b61083d81610915565b50565b3360009081526003602052604090205460ff166108905760405162461bcd60e51b815260206004820152600e60248201526d22a9292fa727aa2fa6a4a72a22a960911b60448201526064016102e6565b6001600160a01b038216600090815260016020819052604082200180548392906103be908490610afc565b6000546001600160a01b031633146103d95760405162461bcd60e51b815260206004820181905260248201527f4f776e61626c653a2063616c6c6572206973206e6f7420746865206f776e657260448201526064016102e6565b600080546001600160a01b038381166001600160a01b0319831681178455604051919092169283917f8be0079c531659141344cd1fd0a4f28419497f9722a3daafe3b4186f6b6457e09190a35050565b80356001600160a01b038116811461097c57600080fd5b919050565b60006020828403121561099357600080fd5b61099c82610965565b9392505050565b600080604083850312156109b657600080fd5b6109bf83610965565b946020939093013593505050565b60008083601f8401126109df57600080fd5b50813567ffffffffffffffff8111156109f757600080fd5b6020830191508360208260051b8501011115610a1257600080fd5b9250929050565b60008060008060408587031215610a2f57600080fd5b843567ffffffffffffffff80821115610a4757600080fd5b610a53888389016109cd565b90965094506020870135915080821115610a6c57600080fd5b50610a79878288016109cd565b95989497509550505050565b600060208284031215610a9757600080fd5b5035919050565b634e487b7160e01b600052601160045260246000fd5b80820180821115610ac757610ac7610a9e565b92915050565b634e487b7160e01b600052603260045260246000fd5b600060018201610af557610af5610a9e565b5060010190565b81810381811115610ac757610ac7610a9e56fea2646970667358221220d58ba3f34e132106b8a8a5bd3c4ea05ee85212eba2d5374360b5239cd316fec564736f6c63430008130033",
  "linkReferences": {},
  "deployedLinkReferences": {}
}