{
  "_format": "hh-sol-artifact-1",
  "contractName": "SophWeareableMinter",
  "sourceName": "contracts/oft/SophWeareableMinter.sol",
  "abi": [
    {
      "inputs": [
        {
          "internalType": "address",
          "name": "_collection",
          "type": "address"
        },
        {
          "internalType": "address",
          "name": "_sophPointsMinter",
          "type": "address"
        }
      ],
      "stateMutability": "nonpayable",
      "type": "constructor"
    },
    {
      "anonymous": false,
      "inputs": [
        {
          "indexed": true,
          "internalType": "address",
          "name": "previousOwner",
          "type": "address"
        },
        {
          "indexed": true,
          "internalType": "address",
          "name": "newOwner",
          "type": "address"
        }
      ],
      "name": "OwnershipTransferred",
      "type": "event"
    },
    {
      "inputs": [],
      "name": "PointsMinter",
      "outputs": [
        {
          "internalType": "address",
          "name": "",
          "type": "address"
        }
      ],
      "stateMutability": "view",
      "type": "function"
    },
    {
      "inputs": [
        {
          "internalType": "address",
          "name": "to",
          "type": "address"
        },
        {
          "internalType": "uint256",
          "name": "itemId",
          "type": "uint256"
        }
      ],
      "name": "_mint",
      "outputs": [],
      "stateMutability": "nonpayable",
      "type": "function"
    },
    {
      "inputs": [
        {
          "internalType": "uint256",
          "name": "tokenId",
          "type": "uint256"
        },
        {
          "internalType": "uint256",
          "name": "price",
          "type": "uint256"
        }
      ],
      "name": "addWeareable",
      "outputs": [],
      "stateMutability": "nonpayable",
      "type": "function"
    },
    {
      "inputs": [],
      "name": "collection",
      "outputs": [
        {
          "internalType": "address",
          "name": "",
          "type": "address"
        }
      ],
      "stateMutability": "view",
      "type": "function"
    },
    {
      "inputs": [
        {
          "internalType": "uint256",
          "name": "tokenId",
          "type": "uint256"
        }
      ],
      "name": "getItemsPrice",
      "outputs": [
        {
          "internalType": "uint256",
          "name": "",
          "type": "uint256"
        }
      ],
      "stateMutability": "view",
      "type": "function"
    },
    {
      "inputs": [
        {
          "internalType": "uint256",
          "name": "",
          "type": "uint256"
        }
      ],
      "name": "item",
      "outputs": [
        {
          "internalType": "uint256",
          "name": "price",
          "type": "uint256"
        },
        {
          "internalType": "uint256",
          "name": "tokenId",
          "type": "uint256"
        }
      ],
      "stateMutability": "view",
      "type": "function"
    },
    {
      "inputs": [
        {
          "internalType": "address",
          "name": "to",
          "type": "address"
        },
        {
          "internalType": "uint256",
          "name": "itemId",
          "type": "uint256"
        }
      ],
      "name": "mint",
      "outputs": [],
      "stateMutability": "nonpayable",
      "type": "function"
    },
    {
      "inputs": [],
      "name": "owner",
      "outputs": [
        {
          "internalType": "address",
          "name": "",
          "type": "address"
        }
      ],
      "stateMutability": "view",
      "type": "function"
    },
    {
      "inputs": [],
      "name": "renounceOwnership",
      "outputs": [],
      "stateMutability": "nonpayable",
      "type": "function"
    },
    {
      "inputs": [
        {
          "internalType": "address",
          "name": "newOwner",
          "type": "address"
        }
      ],
      "name": "transferOwnership",
      "outputs": [],
      "stateMutability": "nonpayable",
      "type": "function"
    }
  ],
  "bytecode": "0x608060405234801561001057600080fd5b506040516109c13803806109c183398101604081905261002f916100d5565b61003833610069565b600180546001600160a01b039384166001600160a01b03199182161790915560028054929093169116179055610108565b600080546001600160a01b038381166001600160a01b0319831681178455604051919092169283917f8be0079c531659141344cd1fd0a4f28419497f9722a3daafe3b4186f6b6457e09190a35050565b80516001600160a01b03811681146100d057600080fd5b919050565b600080604083850312156100e857600080fd5b6100f1836100b9565b91506100ff602084016100b9565b90509250929050565b6108aa806101176000396000f3fe608060405234801561001057600080fd5b506004361061009e5760003560e01c8063898e621911610066578063898e6219146101245780638da5cb5b1461014c578063967aa86d1461015d578063c768510714610170578063f2fde38b1461018357600080fd5b806340c10f19146100a35780634e6ec247146100b85780635225977c146100cb578063715018a6146100f15780637de1e536146100f9575b600080fd5b6100b66100b136600461073a565b610196565b005b6100b66100c636600461073a565b610406565b6100de6100d9366004610764565b61050a565b6040519081526020015b60405180910390f35b6100b6610538565b60015461010c906001600160a01b031681565b6040516001600160a01b0390911681526020016100e8565b610137610132366004610764565b61054c565b604080519283526020830191909152016100e8565b6000546001600160a01b031661010c565b60025461010c906001600160a01b031681565b6100b661017e36600461077d565b61057a565b6100b661019136600461079f565b6105fb565b61019e610674565b6000600382815481106101b3576101b36107c1565b6000918252602082206002918202015490546040516323b9a44960e11b81526001600160a01b038781166004830152929450911691908290634773489290602401602060405180830381865afa158015610211573d6000803e3d6000fd5b505050506040513d601f19601f8201168201806040525081019061023591906107d7565b90508281101561028c5760405162461bcd60e51b815260206004820152601d60248201527f616d6f756e74206578636565647320706f696e74732062616c616e636500000060448201526064015b60405180910390fd5b604051600162fa96b760e01b031981526001600160a01b0386811660048301526024820185905283169063ff05694990604401600060405180830381600087803b1580156102d957600080fd5b505af11580156102ed573d6000803e3d6000fd5b5060009250600191506102fd9050565b604051908082528060200260200182016040528015610326578160200160208202803683370190505b509050858160008151811061033d5761033d6107c1565b6001600160a01b039290921660209283029190910190910152604080516001808252818301909252600091816020016020820280368337019050509050858160008151811061038e5761038e6107c1565b6020908102919091010152600154604051637c8f76a160e01b81526001600160a01b0390911690637c8f76a1906103cb90859085906004016107f0565b600060405180830381600087803b1580156103e557600080fd5b505af11580156103f9573d6000803e3d6000fd5b5050505050505050505050565b61040e610674565b604080516001808252818301909252600091602080830190803683370190505090508281600081518110610444576104446107c1565b6001600160a01b0392909216602092830291909101909101526040805160018082528183019092526000918160200160208202803683370190505090508281600081518110610495576104956107c1565b6020908102919091010152600154604051637c8f76a160e01b81526001600160a01b0390911690637c8f76a1906104d290859085906004016107f0565b600060405180830381600087803b1580156104ec57600080fd5b505af1158015610500573d6000803e3d6000fd5b5050505050505050565b60006003828154811061051f5761051f6107c1565b9060005260206000209060020201600001549050919050565b610540610674565b61054a60006106ce565b565b6003818154811061055c57600080fd5b60009182526020909120600290910201805460019091015490915082565b610582610674565b60408051808201909152908152602081019182526003805460018101825560009190915290517fc2575a0e9e593c00f959f8c92f12db2869c3395a3b0502d05e2516446f71f85b60029092029182015590517fc2575a0e9e593c00f959f8c92f12db2869c3395a3b0502d05e2516446f71f85c90910155565b610603610674565b6001600160a01b0381166106685760405162461bcd60e51b815260206004820152602660248201527f4f776e61626c653a206e6577206f776e657220697320746865207a65726f206160448201526564647265737360d01b6064820152608401610283565b610671816106ce565b50565b6000546001600160a01b0316331461054a5760405162461bcd60e51b815260206004820181905260248201527f4f776e61626c653a2063616c6c6572206973206e6f7420746865206f776e65726044820152606401610283565b600080546001600160a01b038381166001600160a01b0319831681178455604051919092169283917f8be0079c531659141344cd1fd0a4f28419497f9722a3daafe3b4186f6b6457e09190a35050565b80356001600160a01b038116811461073557600080fd5b919050565b6000806040838503121561074d57600080fd5b6107568361071e565b946020939093013593505050565b60006020828403121561077657600080fd5b5035919050565b6000806040838503121561079057600080fd5b50508035926020909101359150565b6000602082840312156107b157600080fd5b6107ba8261071e565b9392505050565b634e487b7160e01b600052603260045260246000fd5b6000602082840312156107e957600080fd5b5051919050565b604080825283519082018190526000906020906060840190828701845b828110156108325781516001600160a01b03168452928401929084019060010161080d565b5050508381038285015284518082528583019183019060005b818110156108675783518352928401929184019160010161084b565b509097965050505050505056fea2646970667358221220834cd59daf4caf6b78f0e0f7f31bae0e864989d12e00efc87782b46a158470cc64736f6c63430008130033",
  "linkReferences": {},
  "deployedLinkReferences": {}
}