{
  "_format": "hh-sol-artifact-1",
  "contractName": "SophPointsMinter",
  "sourceName": "contracts/oft/SophPointsMinter.sol",
  "abi": [
    {
      "anonymous": false,
      "inputs": [
        {
          "indexed": true,
          "internalType": "address",
          "name": "previousOwner",
          "type": "address"
        },
        {
          "indexed": true,
          "internalType": "address",
          "name": "newOwner",
          "type": "address"
        }
      ],
      "name": "OwnershipTransferred",
      "type": "event"
    },
    {
      "inputs": [
        {
          "internalType": "address",
          "name": "user",
          "type": "address"
        }
      ],
      "name": "addUser",
      "outputs": [],
      "stateMutability": "nonpayable",
      "type": "function"
    },
    {
      "inputs": [
        {
          "internalType": "address",
          "name": "",
          "type": "address"
        }
      ],
      "name": "balances",
      "outputs": [
        {
          "internalType": "address",
          "name": "user",
          "type": "address"
        },
        {
          "internalType": "uint256",
          "name": "amount",
          "type": "uint256"
        }
      ],
      "stateMutability": "view",
      "type": "function"
    },
    {
      "inputs": [
        {
          "internalType": "address",
          "name": "user",
          "type": "address"
        },
        {
          "internalType": "uint256",
          "name": "amount",
          "type": "uint256"
        }
      ],
      "name": "decreaseBalance",
      "outputs": [],
      "stateMutability": "nonpayable",
      "type": "function"
    },
    {
      "inputs": [
        {
          "internalType": "address",
          "name": "user",
          "type": "address"
        }
      ],
      "name": "getUserBalance",
      "outputs": [
        {
          "internalType": "uint256",
          "name": "",
          "type": "uint256"
        }
      ],
      "stateMutability": "view",
      "type": "function"
    },
    {
      "inputs": [
        {
          "internalType": "address",
          "name": "user",
          "type": "address"
        },
        {
          "internalType": "uint256",
          "name": "amount",
          "type": "uint256"
        }
      ],
      "name": "increaseBalance",
      "outputs": [],
      "stateMutability": "nonpayable",
      "type": "function"
    },
    {
      "inputs": [],
      "name": "owner",
      "outputs": [
        {
          "internalType": "address",
          "name": "",
          "type": "address"
        }
      ],
      "stateMutability": "view",
      "type": "function"
    },
    {
      "inputs": [],
      "name": "renounceOwnership",
      "outputs": [],
      "stateMutability": "nonpayable",
      "type": "function"
    },
    {
      "inputs": [
        {
          "internalType": "address",
          "name": "newMintForge",
          "type": "address"
        }
      ],
      "name": "setWearableMinter",
      "outputs": [],
      "stateMutability": "nonpayable",
      "type": "function"
    },
    {
      "inputs": [
        {
          "internalType": "address",
          "name": "newOwner",
          "type": "address"
        }
      ],
      "name": "transferOwnership",
      "outputs": [],
      "stateMutability": "nonpayable",
      "type": "function"
    }
  ],
  "bytecode": "0x608060405234801561001057600080fd5b5061001a3361001f565b61006f565b600080546001600160a01b038381166001600160a01b0319831681178455604051919092169283917f8be0079c531659141344cd1fd0a4f28419497f9722a3daafe3b4186f6b6457e09190a35050565b6105f58061007e6000396000f3fe608060405234801561001057600080fd5b50600436106100935760003560e01c80635b86f599116100665780635b86f59914610152578063715018a6146101655780638da5cb5b1461016d578063f2fde38b14610188578063ff0569491461019b57600080fd5b806301cc38591461009857806327e235e3146100ad578063421b2d8b146101045780634773489214610117575b600080fd5b6100ab6100a6366004610531565b6101ae565b005b6100e06100bb366004610531565b600160208190526000918252604090912080549101546001600160a01b039091169082565b604080516001600160a01b0390931683526020830191909152015b60405180910390f35b6100ab610112366004610531565b610248565b610144610125366004610531565b6001600160a01b03166000908152600160208190526040909120015490565b6040519081526020016100fb565b6100ab610160366004610553565b6102df565b6100ab610363565b6000546040516001600160a01b0390911681526020016100fb565b6100ab610196366004610531565b610377565b6100ab6101a9366004610553565b6103f0565b6101b661046b565b6001600160a01b03811660009081526002602052604090205460ff16156102245760405162461bcd60e51b815260206004820152601860248201527f4552525f4d494e5445525f414c52454144595f4144444544000000000000000060448201526064015b60405180910390fd5b6001600160a01b03166000908152600260205260409020805460ff19166001179055565b61025061046b565b6001600160a01b0381811660009081526001602052604090205416156102ae5760405162461bcd60e51b81526020600482015260136024820152727573657220616c72656164792065786973747360681b604482015260640161021b565b6001600160a01b03166000818152600160208190526040822080546001600160a01b03191690931783559190910155565b3360009081526002602052604090205460ff1661032f5760405162461bcd60e51b815260206004820152600e60248201526d22a9292fa727aa2fa6a4a72a22a960911b604482015260640161021b565b6001600160a01b0382166000908152600160208190526040822001805483929061035a908490610593565b90915550505050565b61036b61046b565b61037560006104c5565b565b61037f61046b565b6001600160a01b0381166103e45760405162461bcd60e51b815260206004820152602660248201527f4f776e61626c653a206e6577206f776e657220697320746865207a65726f206160448201526564647265737360d01b606482015260840161021b565b6103ed816104c5565b50565b3360009081526002602052604090205460ff166104405760405162461bcd60e51b815260206004820152600e60248201526d22a9292fa727aa2fa6a4a72a22a960911b604482015260640161021b565b6001600160a01b0382166000908152600160208190526040822001805483929061035a9084906105ac565b6000546001600160a01b031633146103755760405162461bcd60e51b815260206004820181905260248201527f4f776e61626c653a2063616c6c6572206973206e6f7420746865206f776e6572604482015260640161021b565b600080546001600160a01b038381166001600160a01b0319831681178455604051919092169283917f8be0079c531659141344cd1fd0a4f28419497f9722a3daafe3b4186f6b6457e09190a35050565b80356001600160a01b038116811461052c57600080fd5b919050565b60006020828403121561054357600080fd5b61054c82610515565b9392505050565b6000806040838503121561056657600080fd5b61056f83610515565b946020939093013593505050565b634e487b7160e01b600052601160045260246000fd5b808201808211156105a6576105a661057d565b92915050565b818103818111156105a6576105a661057d56fea2646970667358221220e363fb5019306a2fdb3d891349f3d6a5c1e3b585b4bf99222d7c938d6e4d774064736f6c63430008130033",
  "linkReferences": {},
  "deployedLinkReferences": {}
}