{
  "_format": "hh-sol-artifact-1",
  "contractName": "SophPointsMinter",
  "sourceName": "contracts/oft/SophPointsMinter.sol",
  "abi": [
    {
      "anonymous": false,
      "inputs": [
        {
          "indexed": true,
          "internalType": "address",
          "name": "previousOwner",
          "type": "address"
        },
        {
          "indexed": true,
          "internalType": "address",
          "name": "newOwner",
          "type": "address"
        }
      ],
      "name": "OwnershipTransferred",
      "type": "event"
    },
    {
      "inputs": [
        {
          "internalType": "uint256",
          "name": "",
          "type": "uint256"
        }
      ],
      "name": "_users",
      "outputs": [
        {
          "internalType": "address",
          "name": "",
          "type": "address"
        }
      ],
      "stateMutability": "view",
      "type": "function"
    },
    {
      "inputs": [
        {
          "internalType": "address",
          "name": "user",
          "type": "address"
        }
      ],
      "name": "addUser",
      "outputs": [],
      "stateMutability": "nonpayable",
      "type": "function"
    },
    {
      "inputs": [
        {
          "internalType": "address[]",
          "name": "users",
          "type": "address[]"
        },
        {
          "internalType": "uint256[]",
          "name": "points",
          "type": "uint256[]"
        }
      ],
      "name": "addUsers",
      "outputs": [],
      "stateMutability": "nonpayable",
      "type": "function"
    },
    {
      "inputs": [
        {
          "internalType": "address",
          "name": "",
          "type": "address"
        }
      ],
      "name": "balances",
      "outputs": [
        {
          "internalType": "address",
          "name": "user",
          "type": "address"
        },
        {
          "internalType": "uint256",
          "name": "amount",
          "type": "uint256"
        }
      ],
      "stateMutability": "view",
      "type": "function"
    },
    {
      "inputs": [
        {
          "internalType": "address",
          "name": "",
          "type": "address"
        }
      ],
      "name": "balancesLeaderboard",
      "outputs": [
        {
          "internalType": "address",
          "name": "user",
          "type": "address"
        },
        {
          "internalType": "uint256",
          "name": "amount",
          "type": "uint256"
        }
      ],
      "stateMutability": "view",
      "type": "function"
    },
    {
      "inputs": [
        {
          "internalType": "address",
          "name": "user",
          "type": "address"
        },
        {
          "internalType": "uint256",
          "name": "amount",
          "type": "uint256"
        }
      ],
      "name": "decreaseBalance",
      "outputs": [],
      "stateMutability": "nonpayable",
      "type": "function"
    },
    {
      "inputs": [
        {
          "internalType": "address",
          "name": "user",
          "type": "address"
        }
      ],
      "name": "getUserBalance",
      "outputs": [
        {
          "internalType": "uint256",
          "name": "",
          "type": "uint256"
        }
      ],
      "stateMutability": "view",
      "type": "function"
    },
    {
      "inputs": [
        {
          "internalType": "address",
          "name": "user",
          "type": "address"
        }
      ],
      "name": "getUserLeaderBoardBalance",
      "outputs": [
        {
          "internalType": "uint256",
          "name": "",
          "type": "uint256"
        }
      ],
      "stateMutability": "view",
      "type": "function"
    },
    {
      "inputs": [
        {
          "internalType": "address",
          "name": "user",
          "type": "address"
        },
        {
          "internalType": "uint256",
          "name": "amount",
          "type": "uint256"
        }
      ],
      "name": "increaseBalance",
      "outputs": [],
      "stateMutability": "nonpayable",
      "type": "function"
    },
    {
      "inputs": [],
      "name": "owner",
      "outputs": [
        {
          "internalType": "address",
          "name": "",
          "type": "address"
        }
      ],
      "stateMutability": "view",
      "type": "function"
    },
    {
      "inputs": [],
      "name": "renounceOwnership",
      "outputs": [],
      "stateMutability": "nonpayable",
      "type": "function"
    },
    {
      "inputs": [
        {
          "internalType": "address",
          "name": "newMintForge",
          "type": "address"
        }
      ],
      "name": "setWearableMinter",
      "outputs": [],
      "stateMutability": "nonpayable",
      "type": "function"
    },
    {
      "inputs": [
        {
          "internalType": "address",
          "name": "newOwner",
          "type": "address"
        }
      ],
      "name": "transferOwnership",
      "outputs": [],
      "stateMutability": "nonpayable",
      "type": "function"
    }
  ],
  "bytecode": "0x608060405234801561001057600080fd5b5061001a3361001f565b61006f565b600080546001600160a01b038381166001600160a01b0319831681178455604051919092169283917f8be0079c531659141344cd1fd0a4f28419497f9722a3daafe3b4186f6b6457e09190a35050565b610b448061007e6000396000f3fe608060405234801561001057600080fd5b50600436106100cf5760003560e01c80635b86f5991161008c578063be256bfb11610066578063be256bfb1461022d578063cc4a43c014610240578063f2fde38b14610253578063ff0569491461026657600080fd5b80635b86f599146101ed578063715018a6146102005780638da5cb5b1461020857600080fd5b806301cc3859146100d457806308a36181146100e957806327e235e3146101405780632b93e46a14610173578063421b2d8b146101ad57806347734892146101c0575b600080fd5b6100e76100e2366004610980565b610279565b005b61011c6100f7366004610980565b600260205260009081526040902080546001909101546001600160a01b039091169082565b604080516001600160a01b0390931683526020830191909152015b60405180910390f35b61011c61014e366004610980565b600160208190526000918252604090912080549101546001600160a01b039091169082565b61019f610181366004610980565b6001600160a01b031660009081526002602052604090206001015490565b604051908152602001610137565b6100e76101bb366004610980565b610313565b61019f6101ce366004610980565b6001600160a01b03166000908152600160208190526040909120015490565b6100e76101fb3660046109a2565b6103f9565b6100e76104ad565b6000546001600160a01b03165b6040516001600160a01b039091168152602001610137565b6100e761023b366004610a18565b6104c1565b61021561024e366004610a84565b61079c565b6100e7610261366004610980565b6107c6565b6100e76102743660046109a2565b61083f565b6102816108ba565b6001600160a01b03811660009081526003602052604090205460ff16156102ef5760405162461bcd60e51b815260206004820152601860248201527f4552525f4d494e5445525f414c52454144595f4144444544000000000000000060448201526064015b60405180910390fd5b6001600160a01b03166000908152600360205260409020805460ff19166001179055565b61031b6108ba565b6001600160a01b0381811660009081526001602052604090205416156103795760405162461bcd60e51b81526020600482015260136024820152727573657220616c72656164792065786973747360681b60448201526064016102e6565b6001600160a01b0316600081815260016020818152604080842080546001600160a01b03199081168717825590840185905560029092528320805482168517815582018390556004805492830181559092527f8a35acfbc15ff81a39ae7d344fd709f28e8600b4aa8c65c6b64bfe7fe36bd19b0180549091169091179055565b3360009081526003602052604090205460ff166104495760405162461bcd60e51b815260206004820152600e60248201526d22a9292fa727aa2fa6a4a72a22a960911b60448201526064016102e6565b6001600160a01b03821660009081526001602081905260408220018054839290610474908490610ab3565b90915550506001600160a01b038216600090815260026020526040812060010180548392906104a4908490610ab3565b90915550505050565b6104b56108ba565b6104bf6000610914565b565b6104c96108ba565b60005b838110156107955760006001818787858181106104eb576104eb610acc565b90506020020160208101906105009190610980565b6001600160a01b03908116825260208201929092526040016000205416146105605760405162461bcd60e51b81526020600482015260136024820152727573657220616c72656164792065786973747360681b60448201526064016102e6565b84848281811061057257610572610acc565b90506020020160208101906105879190610980565b6001600087878581811061059d5761059d610acc565b90506020020160208101906105b29190610980565b6001600160a01b039081168252602082019290925260400160002080546001600160a01b031916929091169190911790558282828181106105f5576105f5610acc565b905060200201356001600087878581811061061257610612610acc565b90506020020160208101906106279190610980565b6001600160a01b0316815260208101919091526040016000206001015584848281811061065657610656610acc565b905060200201602081019061066b9190610980565b6002600087878581811061068157610681610acc565b90506020020160208101906106969190610980565b6001600160a01b039081168252602082019290925260400160002080546001600160a01b031916929091169190911790558282828181106106d9576106d9610acc565b90506020020135600260008787858181106106f6576106f6610acc565b905060200201602081019061070b9190610980565b6001600160a01b03168152602081019190915260400160002060010155600485858381811061073c5761073c610acc565b90506020020160208101906107519190610980565b81546001810183556000928352602090922090910180546001600160a01b0319166001600160a01b039092169190911790558061078d81610ae2565b9150506104cc565b5050505050565b600481815481106107ac57600080fd5b6000918252602090912001546001600160a01b0316905081565b6107ce6108ba565b6001600160a01b0381166108335760405162461bcd60e51b815260206004820152602660248201527f4f776e61626c653a206e6577206f776e657220697320746865207a65726f206160448201526564647265737360d01b60648201526084016102e6565b61083c81610914565b50565b3360009081526003602052604090205460ff1661088f5760405162461bcd60e51b815260206004820152600e60248201526d22a9292fa727aa2fa6a4a72a22a960911b60448201526064016102e6565b6001600160a01b038216600090815260016020819052604082200180548392906104a4908490610afb565b6000546001600160a01b031633146104bf5760405162461bcd60e51b815260206004820181905260248201527f4f776e61626c653a2063616c6c6572206973206e6f7420746865206f776e657260448201526064016102e6565b600080546001600160a01b038381166001600160a01b0319831681178455604051919092169283917f8be0079c531659141344cd1fd0a4f28419497f9722a3daafe3b4186f6b6457e09190a35050565b80356001600160a01b038116811461097b57600080fd5b919050565b60006020828403121561099257600080fd5b61099b82610964565b9392505050565b600080604083850312156109b557600080fd5b6109be83610964565b946020939093013593505050565b60008083601f8401126109de57600080fd5b50813567ffffffffffffffff8111156109f657600080fd5b6020830191508360208260051b8501011115610a1157600080fd5b9250929050565b60008060008060408587031215610a2e57600080fd5b843567ffffffffffffffff80821115610a4657600080fd5b610a52888389016109cc565b90965094506020870135915080821115610a6b57600080fd5b50610a78878288016109cc565b95989497509550505050565b600060208284031215610a9657600080fd5b5035919050565b634e487b7160e01b600052601160045260246000fd5b80820180821115610ac657610ac6610a9d565b92915050565b634e487b7160e01b600052603260045260246000fd5b600060018201610af457610af4610a9d565b5060010190565b81810381811115610ac657610ac6610a9d56fea2646970667358221220a394f7fd989be68c9c1c8932343b030db91a2a1e93cf1e6cd07ceddbea87ecae64736f6c63430008130033",
  "linkReferences": {},
  "deployedLinkReferences": {}
}