{
  "_format": "hh-sol-artifact-1",
  "contractName": "SophWeareableMinter",
  "sourceName": "contracts/oft/SophWeareableMinter.sol",
  "abi": [
    {
      "inputs": [
        {
          "internalType": "address",
          "name": "_collection",
          "type": "address"
        },
        {
          "internalType": "address",
          "name": "_sophPointsMinter",
          "type": "address"
        }
      ],
      "stateMutability": "nonpayable",
      "type": "constructor"
    },
    {
      "anonymous": false,
      "inputs": [
        {
          "indexed": true,
          "internalType": "address",
          "name": "previousOwner",
          "type": "address"
        },
        {
          "indexed": true,
          "internalType": "address",
          "name": "newOwner",
          "type": "address"
        }
      ],
      "name": "OwnershipTransferred",
      "type": "event"
    },
    {
      "inputs": [],
      "name": "PointsMinter",
      "outputs": [
        {
          "internalType": "address",
          "name": "",
          "type": "address"
        }
      ],
      "stateMutability": "view",
      "type": "function"
    },
    {
      "inputs": [
        {
          "internalType": "address",
          "name": "to",
          "type": "address"
        },
        {
          "internalType": "uint256",
          "name": "itemId",
          "type": "uint256"
        }
      ],
      "name": "_mint",
      "outputs": [],
      "stateMutability": "nonpayable",
      "type": "function"
    },
    {
      "inputs": [
        {
          "internalType": "uint256",
          "name": "tokenId",
          "type": "uint256"
        },
        {
          "internalType": "uint256",
          "name": "price",
          "type": "uint256"
        }
      ],
      "name": "addWeareable",
      "outputs": [],
      "stateMutability": "nonpayable",
      "type": "function"
    },
    {
      "inputs": [],
      "name": "collection",
      "outputs": [
        {
          "internalType": "address",
          "name": "",
          "type": "address"
        }
      ],
      "stateMutability": "view",
      "type": "function"
    },
    {
      "inputs": [
        {
          "internalType": "uint256",
          "name": "tokenId",
          "type": "uint256"
        }
      ],
      "name": "getItemsPrice",
      "outputs": [
        {
          "internalType": "uint256",
          "name": "",
          "type": "uint256"
        }
      ],
      "stateMutability": "view",
      "type": "function"
    },
    {
      "inputs": [
        {
          "internalType": "uint256",
          "name": "",
          "type": "uint256"
        }
      ],
      "name": "item",
      "outputs": [
        {
          "internalType": "uint256",
          "name": "price",
          "type": "uint256"
        },
        {
          "internalType": "uint256",
          "name": "tokenId",
          "type": "uint256"
        }
      ],
      "stateMutability": "view",
      "type": "function"
    },
    {
      "inputs": [
        {
          "internalType": "address",
          "name": "to",
          "type": "address"
        },
        {
          "internalType": "uint256",
          "name": "itemId",
          "type": "uint256"
        }
      ],
      "name": "mint",
      "outputs": [],
      "stateMutability": "nonpayable",
      "type": "function"
    },
    {
      "inputs": [],
      "name": "owner",
      "outputs": [
        {
          "internalType": "address",
          "name": "",
          "type": "address"
        }
      ],
      "stateMutability": "view",
      "type": "function"
    },
    {
      "inputs": [],
      "name": "renounceOwnership",
      "outputs": [],
      "stateMutability": "nonpayable",
      "type": "function"
    },
    {
      "inputs": [
        {
          "internalType": "address",
          "name": "newOwner",
          "type": "address"
        }
      ],
      "name": "transferOwnership",
      "outputs": [],
      "stateMutability": "nonpayable",
      "type": "function"
    },
    {
      "inputs": [
        {
          "internalType": "uint256",
          "name": "tokenId",
          "type": "uint256"
        },
        {
          "internalType": "uint256",
          "name": "price",
          "type": "uint256"
        }
      ],
      "name": "updateWeareable",
      "outputs": [],
      "stateMutability": "nonpayable",
      "type": "function"
    }
  ],
  "bytecode": "0x608060405234801561001057600080fd5b50604051610a34380380610a3483398101604081905261002f916100d5565b61003833610069565b600180546001600160a01b039384166001600160a01b03199182161790915560028054929093169116179055610108565b600080546001600160a01b038381166001600160a01b0319831681178455604051919092169283917f8be0079c531659141344cd1fd0a4f28419497f9722a3daafe3b4186f6b6457e09190a35050565b80516001600160a01b03811681146100d057600080fd5b919050565b600080604083850312156100e857600080fd5b6100f1836100b9565b91506100ff602084016100b9565b90509250929050565b61091d806101176000396000f3fe608060405234801561001057600080fd5b50600436106100a95760003560e01c80637de1e536116100715780637de1e53614610117578063898e6219146101425780638da5cb5b1461016a578063967aa86d1461017b578063c76851071461018e578063f2fde38b146101a157600080fd5b80630d37b26e146100ae57806340c10f19146100c35780634e6ec247146100d65780635225977c146100e9578063715018a61461010f575b600080fd5b6100c16100bc366004610791565b6101b4565b005b6100c16100d13660046107cf565b6101e5565b6100c16100e43660046107cf565b610479565b6100fc6100f73660046107f9565b61057d565b6040519081526020015b60405180910390f35b6100c16105ab565b60015461012a906001600160a01b031681565b6040516001600160a01b039091168152602001610106565b6101556101503660046107f9565b6105bf565b60408051928352602083019190915201610106565b6000546001600160a01b031661012a565b60025461012a906001600160a01b031681565b6100c161019c366004610791565b6105ed565b6100c16101af366004610812565b61066e565b6101bc6106e7565b80600383815481106101d0576101d0610834565b60009182526020909120600290910201555050565b6101ed6106e7565b60006003828154811061020257610202610834565b6000918252602082206002918202015490546040516323b9a44960e11b81526001600160a01b038781166004830152929450911691908290634773489290602401602060405180830381865afa158015610260573d6000803e3d6000fd5b505050506040513d601f19601f82011682018060405250810190610284919061084a565b9050828110156102db5760405162461bcd60e51b815260206004820152601d60248201527f616d6f756e74206578636565647320706f696e74732062616c616e636500000060448201526064015b60405180910390fd5b604051600162fa96b760e01b031981526001600160a01b0386811660048301526024820185905283169063ff05694990604401600060405180830381600087803b15801561032857600080fd5b505af115801561033c573d6000803e3d6000fd5b50600092506001915061034c9050565b604051908082528060200260200182016040528015610375578160200160208202803683370190505b509050858160008151811061038c5761038c610834565b6001600160a01b039290921660209283029190910190910152604080516001808252818301909252600091816020016020820280368337019050509050600386815481106103dc576103dc610834565b9060005260206000209060020201600101548160008151811061040157610401610834565b6020908102919091010152600154604051637c8f76a160e01b81526001600160a01b0390911690637c8f76a19061043e9085908590600401610863565b600060405180830381600087803b15801561045857600080fd5b505af115801561046c573d6000803e3d6000fd5b5050505050505050505050565b6104816106e7565b6040805160018082528183019092526000916020808301908036833701905050905082816000815181106104b7576104b7610834565b6001600160a01b039290921660209283029190910190910152604080516001808252818301909252600091816020016020820280368337019050509050828160008151811061050857610508610834565b6020908102919091010152600154604051637c8f76a160e01b81526001600160a01b0390911690637c8f76a1906105459085908590600401610863565b600060405180830381600087803b15801561055f57600080fd5b505af1158015610573573d6000803e3d6000fd5b5050505050505050565b60006003828154811061059257610592610834565b9060005260206000209060020201600001549050919050565b6105b36106e7565b6105bd6000610741565b565b600381815481106105cf57600080fd5b60009182526020909120600290910201805460019091015490915082565b6105f56106e7565b60408051808201909152908152602081019182526003805460018101825560009190915290517fc2575a0e9e593c00f959f8c92f12db2869c3395a3b0502d05e2516446f71f85b60029092029182015590517fc2575a0e9e593c00f959f8c92f12db2869c3395a3b0502d05e2516446f71f85c90910155565b6106766106e7565b6001600160a01b0381166106db5760405162461bcd60e51b815260206004820152602660248201527f4f776e61626c653a206e6577206f776e657220697320746865207a65726f206160448201526564647265737360d01b60648201526084016102d2565b6106e481610741565b50565b6000546001600160a01b031633146105bd5760405162461bcd60e51b815260206004820181905260248201527f4f776e61626c653a2063616c6c6572206973206e6f7420746865206f776e657260448201526064016102d2565b600080546001600160a01b038381166001600160a01b0319831681178455604051919092169283917f8be0079c531659141344cd1fd0a4f28419497f9722a3daafe3b4186f6b6457e09190a35050565b600080604083850312156107a457600080fd5b50508035926020909101359150565b80356001600160a01b03811681146107ca57600080fd5b919050565b600080604083850312156107e257600080fd5b6107eb836107b3565b946020939093013593505050565b60006020828403121561080b57600080fd5b5035919050565b60006020828403121561082457600080fd5b61082d826107b3565b9392505050565b634e487b7160e01b600052603260045260246000fd5b60006020828403121561085c57600080fd5b5051919050565b604080825283519082018190526000906020906060840190828701845b828110156108a55781516001600160a01b031684529284019290840190600101610880565b5050508381038285015284518082528583019183019060005b818110156108da578351835292840192918401916001016108be565b509097965050505050505056fea2646970667358221220e7eb30f48ed964c1b71690e6c8ceae28dc48a1bd7a675ecc0ec541e10233701364736f6c63430008130033",
  "linkReferences": {},
  "deployedLinkReferences": {}
}